{
  "contractName": "Verifier",
  "abi": [
    {
      "constant": true,
      "inputs": [
        {
          "name": "a",
          "type": "uint256[2]"
        },
        {
          "name": "b",
          "type": "uint256[2][2]"
        },
        {
          "name": "c",
          "type": "uint256[2]"
        },
        {
          "name": "input",
          "type": "uint256[3]"
        }
      ],
      "name": "verifyDeposit",
      "outputs": [
        {
          "name": "r",
          "type": "bool"
        }
      ],
      "payable": false,
      "stateMutability": "view",
      "type": "function",
      "signature": "0xe331f4bd"
    },
    {
      "constant": true,
      "inputs": [
        {
          "name": "a",
          "type": "uint256[2]"
        },
        {
          "name": "b",
          "type": "uint256[2][2]"
        },
        {
          "name": "c",
          "type": "uint256[2]"
        },
        {
          "name": "input",
          "type": "uint256[15]"
        }
      ],
      "name": "verifyTransaction",
      "outputs": [
        {
          "name": "r",
          "type": "bool"
        }
      ],
      "payable": false,
      "stateMutability": "view",
      "type": "function",
      "signature": "0x573a163e"
    },
    {
      "constant": true,
      "inputs": [
        {
          "name": "a",
          "type": "uint256[2]"
        },
        {
          "name": "b",
          "type": "uint256[2][2]"
        },
        {
          "name": "c",
          "type": "uint256[2]"
        },
        {
          "name": "input",
          "type": "uint256[4]"
        }
      ],
      "name": "verifyWithdrawal",
      "outputs": [
        {
          "name": "r",
          "type": "bool"
        }
      ],
      "payable": false,
      "stateMutability": "view",
      "type": "function",
      "signature": "0x53208630"
    }
  ],
  "bytecode": "0x608060405234801561001057600080fd5b5061206c806100206000396000f3fe608060405234801561001057600080fd5b506004361061005d577c01000000000000000000000000000000000000000000000000000000006000350463532086308114610062578063573a163e14610172578063e331f4bd1461026f575b600080fd5b61015e600480360361018081101561007957600080fd5b6040805180820182529183019291818301918390600290839083908082843760009201829052506040805180820190915293969594608081019493509150600290835b828210156100fa57604080518082018252908084028601906002908390839080828437600092019190915250505081526001909101906020016100bc565b50506040805180820182529396959481810194935091506002908390839080828437600092019190915250506040805160808181019092529295949381810193925090600490839083908082843760009201919091525091945061036b9350505050565b604080519115158252519081900360200190f35b61015e60048036036102e081101561018957600080fd5b6040805180820182529183019291818301918390600290839083908082843760009201829052506040805180820190915293969594608081019493509150600290835b8282101561020a57604080518082018252908084028601906002908390839080828437600092019190915250505081526001909101906020016101cc565b5050604080518082018252939695948181019493509150600290839083908082843760009201919091525050604080516101e08181019092529295949381810193925090600f90839083908082843760009201919091525091945061047a9350505050565b61015e600480360361016081101561028657600080fd5b6040805180820182529183019291818301918390600290839083908082843760009201829052506040805180820190915293969594608081019493509150600290835b8282101561030757604080518082018252908084028601906002908390839080828437600092019190915250505081526001909101906020016102c9565b5050604080518082018252939695948181019493509150600290839083908082843760009201919091525050604080516060818101909252929594938181019392509060039083908390808284376000920191909152509194506105669350505050565b6000610375611f13565b60408051808201825287518152602080890151818301529083528151608080820184528851518285019081528951840151606080850191909152908352845180860186528a850180515182525185015181860152838501528584019290925283518085018552885181528884015181850152858501528351600480825260a08201909552919391928301908038833901905050905060005b60048110156104475784816004811061042257fe5b6020020151828281518110151561043557fe5b6020908102909101015260010161040d565b5061045a818361045561064e565b610b35565b151561046b57600192505050610472565b6000925050505b949350505050565b6000610484611f13565b6040805180820182528751815260208089015181830152908352815160808101835287515181840190815288518301516060808401919091529082528351808501855289840180515182525184015181850152828401528483019190915282518084018452875181528783015181840152848401528251600f80825261020082019094529092909182016101e08038833901905050905060005b600f811015610558578481600f811061053357fe5b6020020151828281518110151561054657fe5b6020908102909101015260010161051e565b5061045a8183610455610c43565b6000610570611f13565b60408051808201825287518152602080890151818301529083528151608080820184528851518285019081528951840151606080850191909152908352845180860186528a85018051518252518501518186015283850152858401929092528351808501855288518152888401518185015285850152835160038082529181019094529092918201838038833901905050905060005b60038110156106405784816003811061061b57fe5b6020020151828281518110151561062e57fe5b60209081029091010152600101610606565b5061045a8183610455611624565b610656611f47565b6040805180820182527f12ad5bd007a44d315d041dd939226217d62c41de0c9f4b4eb338e22f6ac29b7681527f042176d474cfd25b5d0197412aa94d98d3a118698758728386d46ba9235fd30a6020808301919091529083528151608080820184527f2a833d1078e2584a372af70baa2cc4875c5d291712a1b13761a226ca3af974dd8285019081527f27631b3877274f131dd00e62357b2ac5d121a5df60077f66b6d1f6d79f0052e0606080850191909152908352845180860186527f1f74f513cf9520f77134796d0ad8df0bef87ad47aeba705b41cc4302a0d89d2f81527f1afbda263877950f32df691336b23fb0a79e233af3662dc82ec75c7cb39f2ee8818601528385015285840192909252835180820185527f113b6b83a9752e5187ad43beb9dfc1b4d63c87d233d4d8831bdd9e562420fe608186019081527f2c36c779a90bfc32f11c13f90790442b076724bded8619507c0c074b122145d0828501528152845180860186527f0752ec2be8414bae3088abdf5198f61e7c636a717391ca25b4b0fec8ed7ac35d81527f0b2e211549e39d0ce5c086a0095afb583ad0b7c473c40dae271ac1f8ddae6479818601528185015285850152835190810184527f14e798fa9525b1f89808554f01fd1682ef5c9875a4bcf68a7c3797eb0be424b08185019081527f0903d203c9533545976793d27519d4f5454cc41c28c1fd408cbac6b1405bc776828401528152835180850185527f229eb2c75965d7b3c91e54bf9672ee1f979ec95342d178926d43e3e06dcc568281527f2d061b2e2d138341a3b2e8ce7a83bfe3e63aaa16af17acc84915466d7bcbd9778185015281840152908401528151600580825260c08201909352919082015b6108d9611f90565b8152602001906001900390816108d157505060808201908152604080518082019091527f2753ea6034f5aaf7c1c307b806e62dc32e039c04f40cad54655ea16a2a3ca1cd81527f19dfebe344f03986da91c110fbc7d3bf3a9e5a0222b571e5d10d835f795e9b2b602082015290518051600090811061095457fe5b9060200190602002018190525060408051908101604052807f2b71377e5408740b90ecfe7cc6f47310302a634236e65b3812c4c68abb2ecb6581526020017f16504d3d8cfe8de56612ee50a27fc4adf1ebfd1f6eb2acb1ec9e153235577211815250816080015160018151811015156109c957fe5b9060200190602002018190525060408051908101604052807f06b5a4e8919fcc6708d850ce422063f527d87ec4e67a1e1ffd7ce7f66298d5c081526020017f1d1bfec2a91be9b500111dd6f297727b8e3285561f3e493eef6cf10aa769cff281525081608001516002815181101515610a3e57fe5b9060200190602002018190525060408051908101604052807f2237dd1c7f96b86ff8994ffbb0f305816789db5efce2c5e875c7c528d7f11ab181526020017f09024b15dbf47108c2c8ad4cf58cfe2041f999c3172df2a4dd7020736662798a81525081608001516003815181101515610ab357fe5b9060200190602002018190525060408051908101604052807f1611e08370e7be8776ce2d7dbebc0610b96896d7d9a51ed9cdab4fd4bb0c95a481526020017f1b2b32a008bfc4fba9869aba2befe920a376acd610bffdecc2c28013a52d353181525081608001516004815181101515610b2857fe5b6020908102909101015290565b60008160800151518451600101141515610b4e57600080fd5b610b56611f90565b50604080518082019091526000808252602082018190525b8551811015610bc957610bbf82610bba866080015184600101815181101515610b9357fe5b906020019060200201518985815181101515610bab57fe5b90602001906020020151611a88565b611ae2565b9150600101610b6e565b50610bf08184608001516000815181101515610be157fe5b90602001906020020151611ae2565b9050610c26610c028560000151611b30565b8560200151856000015186602001518588604001518a604001518a60600151611bbe565b1515610c36576001915050610c3c565b60009150505b9392505050565b610c4b611f47565b6040805180820182527f115670a6c12b2bb7c36091d6f57697f5dce4f374266ffbcb53e8241f76e560da81527f1766e14ea2e138df4be0fe78fd2cc3a67966d818b2b9ac4b929181c0f87af3556020808301919091529083528151608080820184527f2bed75d83e979c69669777a8d341945b05526f34c6ced948b62eccd5bae59a078285019081527f2cc775c5c1f75924316f6b26ec9dd105b4031c88bccf82fee515bd3513962dd5606080850191909152908352845180860186527f01228c5c4f842cbc3edcae1fbe1a52160c1fcbadf039624a966b09855f0cb88381527f1ecc47397b31d8f9f9aba93354842bd53d23a4210bdd4cb90d3deb5b9413d3ca818601528385015285840192909252835180820185527f0fab0256a1fdc14971781d789935d426027e7e79fa1a85cb09a39f9e1826aa9a8186019081527f0fdd4d88d9f09cd139d1dbf2c738c3e6475091d3c7c913ca50ff764dc1b18f88828501528152845180860186527f1eff75ee6b454fc297c054b6247019cf167496753113be267f208cbac6443c3681527f2e455775d9e2b10047fd51bd67bef73989ca296972ba3c4bce0d2498de063bbd818601528185015285850152835190810184527f1a23d85619211c07611b694fdc233b49ff9a15eabb1635bd66aba2318ab2044d8185019081527e4e4b9dde97941d7c2ca0f5c2e72343b1f56a0185f8226fc9148dce43e3623e828401528152835180850185527f0867f328e5785fc7cf62946c4957047303269d3a7a4fbd728c61b4fa18dd640081527f1f6e73168d077c899931a17273a6a3451716ad5daffa82cbeed47c8264e98910818501528184015290840152815160108082526102208201909352919082015b610ece611f90565b815260200190600190039081610ec657505060808201908152604080518082019091527f0d315f6108dc7d4da857d81867033da5b573e6ca20490ac64b9046e107a6cf3181527f25ab2d0849c5bfd1fccd0ce21fe71fec419ff92b95d0c425d4b03be4cb345e1d6020820152905180516000908110610f4957fe5b9060200190602002018190525060408051908101604052807f2917814a6288390444382013d1b562bc3ae30f167008ec65232eac754f08aa4381526020017f28a54288937315454afc3f8717dbb3a479d3227a979e1aa10ce21f29196968f381525081608001516001815181101515610fbe57fe5b9060200190602002018190525060408051908101604052807f0c623e03755ae52e56c810112f4421675ba876f9ff66d168d31b755ef4173fa481526020017f1025873c11752a88ccca8c8c47cc3120a7a8260a19e34f267d2f8c87d681e6ff8152508160800151600281518110151561103357fe5b9060200190602002018190525060408051908101604052807f2fa0b45768c207d15deb854814e7cf26397868d01d47f84bd7187354676e752781526020017f0e2611fd6814beaa0d0d69189711df4649e4d4cb31ea4ff55c206b4d6aa59693815250816080015160038151811015156110a857fe5b9060200190602002018190525060408051908101604052807f0cc8d9f3eb57b2c2980e4594d46c7474f172c6417154125ba4599f94955e4bed81526020017f02818ec61131ee7b1a942e9b4ce9964ae9ab34fdd2ff8e107b9ee4c560f9e0308152508160800151600481518110151561111d57fe5b9060200190602002018190525060408051908101604052807f24e21d8355554ef48c321b127c8bf3204600132d0573fe26a57534c406c4d19681526020017f29c31b8ee37229ba841ca33b8d0d993dbfed8e00da35051286c08e51aee507c78152508160800151600581518110151561119257fe5b9060200190602002018190525060408051908101604052807f068bb454dec01d99a1e2f720c3815d9d23e0aef65c3c6f27bdfd6f16c96504d981526020017f19cd872c8bff3565e87b86db0ab3f46410a32f4bd7887b66aa3abf6873874a5b8152508160800151600681518110151561120757fe5b9060200190602002018190525060408051908101604052807f0aaae928dd75cabaf55733aecbe132351b913d8723e905563cf0f0075009b5e581526020017f1a010caf40eee332e1cf6092fa29da8a7742ecca91d728764018a51e2bde69428152508160800151600781518110151561127c57fe5b9060200190602002018190525060408051908101604052807f072a5b8d2a08a89f2014d91b733f06e71f587c41adeddce9d13e5d181ab080ef81526020017f2dedb15e374bb9263af5ff11107ebc2a237e074f021730ea1a566326542b8c5d815250816080015160088151811015156112f157fe5b9060200190602002018190525060408051908101604052807f1c73465993168475dbb296421d35a92962fc7d35e262bc85408f95441ced66d381526020017f1ff1199fcfa6f9fda62235e783ed0c7cd8f8079b0df93e93e68a1214037340638152508160800151600981518110151561136657fe5b9060200190602002018190525060408051908101604052807f0f13c0996a9c64bff87273c6d28e106e225362755fbb825054c445987366280381526020017f217726e7f99874195381a7fe3e9e34411f66f0967f3dcbcd91a57f0cfe68cf838152508160800151600a8151811015156113db57fe5b9060200190602002018190525060408051908101604052807f0d75941b497039b17ca20b768a689074a593ab7941f328f4e96161c67edb01d381526020017f2d193ab9f5cb6082da99596fcb97c3aab90935c25ee5571024fbe41a161a7d018152508160800151600b81518110151561145057fe5b9060200190602002018190525060408051908101604052807f1eedbcf336954c881fe0291882d2c9dca205dbd36fdcdd12882f584a7f2d43d281526020017f08633f00a5aa6f044def49c9569582c43f94c73d62805f82cf440878f4765d738152508160800151600c8151811015156114c557fe5b9060200190602002018190525060408051908101604052807f240a4dbf08c52c2f43d71bf6cd65d14e4509ba69ba227e7d440e93e08f497b2c81526020017f2c32a81d9938dc1b4c01c932661c9d16385e820e62e3c75e8f5a0e95d27055098152508160800151600d81518110151561153a57fe5b9060200190602002018190525060408051908101604052807f304f5aded0e9645dcb0ab5c35e3c3962b53a9d0744933f537f07de5f9fe1113481526020017f01c5a781df19ccc09ab58a8d495a09f2818ce5cf8619ea7e09c23bf83b4fa97b8152508160800151600e8151811015156115af57fe5b9060200190602002018190525060408051908101604052807f0edf778e8fe963ea746d33d99dfc8bcb9215e09045461210e75e415972f8d1a181526020017f25d763cd0287fcd4f9ee6ef04d0db8e6978283a0c7ddb6a2eba8a06d6be0984f8152508160800151600f815181101515610b2857fe5b61162c611f47565b6040805180820182527f25dc4204773755eaf8b10406a8aafeba2ac73d5945f92f045b7e8611ed8b281f81527f19bdd32a1667e8ed7efe363bda8ba7d7b7539db4293f3be7557e0cd97f2157c36020808301919091529083528151608080820184527f1b19846baf1133b3e07172a6e75591132f3402dbe1c0f3ff17d4e2337b238fea8285019081527f1848e278d2da4d2e1fea10abbd9700192bd518e217c048cb6e9721f2c3936c63606080850191909152908352845180860186527f130c80f6845c0e0c6a37c125912d4c0089260343df0c777084390807a635053581527f0bbf58276a2d87501c2e3bd3c6eccf6d2ec439e240a9eec978381f4db0813a8a818601528385015285840192909252835180820185527f11ec707981a81a345ad5c5e430266fb73c8c47e1baa6e4483fc2a1acf85287ba8186019081527f1898aa2cdc65b0007a3f1f260ec25e5f92c22f302bd6cdde76ad0d34a73ae5f3828501528152845180860186527f1aebfbc16431233ae53990da2f420eb43c301b3460b0aebc3b5f2c2843405c5581527f2f48c77e3cea0b477d46e59245e6808d4f0a31d02c06660067cc5fec03a3d0e0818601528185015285850152835190810184527f11bb203396c4da504f66d32d811e0a651dcdffb98176ace84ba2d954f386b01f8185019081527f2e752c2e4121aa0217243ff9a46c00fe95ab3e02cfc8976d66c2596f894a0b78828401528152835180850185527f1d829a5c99374c903cdd67ceb7dcda5b604f3868161b1230a4fc57a2674b394181527f25e51d7cc5b3f4ec9aac07e6ab82379e59a06f58e7c6a9c705743b002267c3528185015281840152908401528151600480825260a08201909352919082015b6118af611f90565b8152602001906001900390816118a757505060808201908152604080518082019091527f1c0405c184f6243ae879a89f452f76112fa818488737b4c0e46e8fdfed38fc4481527f0baac8c3827e743937f78e463255126fbc57e8e03a51f94a22196c95ee59acf0602082015290518051600090811061192a57fe5b9060200190602002018190525060408051908101604052807f12e3d89b7ef634f60001d8d7ed9388c0a679bb081769dadf277954f2b4c3018881526020017f1e855ca4835035439c7af5d734749053b6fe5a2a9da7e2587de9552f3e9446e48152508160800151600181518110151561199f57fe5b9060200190602002018190525060408051908101604052807f23318d3da46c9593dda737f159535df992afe1c0556899b3f4bd103bd86d598581526020017f1611b4459849aa3b3a693b8a239d6f2d354fa74c9dd16bd558c13ffa4d59453081525081608001516002815181101515611a1457fe5b9060200190602002018190525060408051908101604052807f202dbe28ffce78526622f14fccb5da2d15b4fb13c305fff31032b3c646ae1f0081526020017e3d16c1beab47a920a768617464647cec407626f7681f29fb14670cfe77ca0381525081608001516003815181101515610b2857fe5b611a90611f90565b611a98611fa7565b835181526020808501519082015260408101839052600060608360808460076107d05a03fa9050808015611acb57611acd565bfe5b50801515611ada57600080fd5b505092915050565b611aea611f90565b611af2611fc6565b8351815260208085015181830152835160408301528301516060808301919091526000908360c08460066107d05a03fa9050808015611acb57611acd565b611b38611f90565b81517f30644e72e131a029b85045b68181585d97816a916871ca8d3c208c16d87cfd4790158015611b6b57506020830151155b15611b8b5750506040805180820190915260008082526020820152611bb9565b604080519081016040528084600001518152602001828560200151811515611baf57fe5b0683038152509150505b919050565b60408051600480825260a0820190925260009160609190816020015b611be2611f90565b815260200190600190039081611bda57505060408051600480825260a0820190925291925060609190602082015b611c18611fe5565b815260200190600190039081611c105790505090508a826000815181101515611c3d57fe5b602090810290910101528151899083906001908110611c5857fe5b602090810290910101528151879083906002908110611c7357fe5b602090810290910101528151859083906003908110611c8e57fe5b6020908102909101015280518a9082906000908110611ca957fe5b602090810290910101528051889082906001908110611cc457fe5b602090810290910101528051869082906002908110611cdf57fe5b602090810290910101528051849082906003908110611cfa57fe5b60209081029091010152611d0e8282611d1d565b9b9a5050505050505050505050565b8051825160009114611d2e57600080fd5b8251604080516006830280825260c084028201602001909252606090828015611d61578160200160208202803883390190505b50905060005b83811015611ed1578681815181101515611d7d57fe5b60209081029091010151518251839060068402908110611d9957fe5b602090810290910101528651879082908110611db157fe5b90602001906020020151602001518282600602600101815181101515611dd357fe5b602090810290910101528551869082908110611deb57fe5b602090810291909101015151518251839060026006850201908110611e0c57fe5b602090810290910101528551869082908110611e2457fe5b6020908102919091018101515101518251839060036006850201908110611e4757fe5b602090810290910101528551869082908110611e5f57fe5b6020908102919091018101510151518251839060046006850201908110611e8257fe5b602090810290910101528551869082908110611e9a57fe5b60209081029190910181015181015101518251839060056006850201908110611ebf57fe5b60209081029091010152600101611d67565b50611eda612006565b6000602082602086026020860160086107d05a03fa9050808015611acb5750801515611f0557600080fd5b505115159695505050505050565b61010060405190810160405280611f28611f90565b8152602001611f35611fe5565b8152602001611f42611f90565b905290565b6101e060405190810160405280611f5c611f90565b8152602001611f69611fe5565b8152602001611f76611fe5565b8152602001611f83611fe5565b8152602001606081525090565b604080518082019091526000808252602082015290565b6060604051908101604052806003906020820280388339509192915050565b6080604051908101604052806004906020820280388339509192915050565b608060405190810160405280611ff9612025565b8152602001611f42612025565b6020604051908101604052806001906020820280388339509192915050565b6040805180820182529060029082908038833950919291505056fea165627a7a7230582049ec3030ec4903a807ab4f5197746174bcad4f40c22750f24b1cfbc8efbdc7430029",
  "source": "//\n// Copyright 2017 Christian Reitwiessner\n// Permission is hereby granted, free of charge, to any person obtaining a copy of this software and associated documentation files (the \"Software\"), to deal in the Software without restriction, including without limitation the rights to use, copy, modify, merge, publish, distribute, sublicense, and/or sell copies of the Software, and to permit persons to whom the Software is furnished to do so, subject to the following conditions:\n// The above copyright notice and this permission notice shall be included in all copies or substantial portions of the Software.\n// THE SOFTWARE IS PROVIDED \"AS IS\", WITHOUT WARRANTY OF ANY KIND, EXPRESS OR IMPLIED, INCLUDING BUT NOT LIMITED TO THE WARRANTIES OF MERCHANTABILITY, FITNESS FOR A PARTICULAR PURPOSE AND NONINFRINGEMENT. IN NO EVENT SHALL THE AUTHORS OR COPYRIGHT HOLDERS BE LIABLE FOR ANY CLAIM, DAMAGES OR OTHER LIABILITY, WHETHER IN AN ACTION OF CONTRACT, TORT OR OTHERWISE, ARISING FROM, OUT OF OR IN CONNECTION WITH THE SOFTWARE OR THE USE OR OTHER DEALINGS IN THE SOFTWARE.\npragma solidity >=0.5.2;\nlibrary Pairing {\n    struct G1Point {\n        uint X;\n        uint Y;\n    }\n    // Encoding of field elements is: X[0] * z + X[1]\n    struct G2Point {\n        uint[2] X;\n        uint[2] Y;\n    }\n    /// @return the generator of G1\n    function P1() pure internal returns (G1Point memory) {\n        return G1Point(1, 2);\n    }\n    /// @return the generator of G2\n    function P2() pure internal returns (G2Point memory) {\n        // Original code point\n        return G2Point(\n            [11559732032986387107991004021392285783925812861821192530917403151452391805634,\n             10857046999023057135944570762232829481370756359578518086990519993285655852781],\n            [4082367875863433681332203403145435568316851327593401208105741076214120093531,\n             8495653923123431417604973247489272438418190587263600148770280649306958101930]\n        );\n\n/*\n        // Changed by Jordi point\n        return G2Point(\n            [10857046999023057135944570762232829481370756359578518086990519993285655852781,\n             11559732032986387107991004021392285783925812861821192530917403151452391805634],\n            [8495653923123431417604973247489272438418190587263600148770280649306958101930,\n             4082367875863433681332203403145435568316851327593401208105741076214120093531]\n        );\n*/\n    }\n    /// @return the negation of p, i.e. p.addition(p.negate()) should be zero.\n    function negate(G1Point memory p) pure internal returns (G1Point memory) {\n        // The prime q in the base field F_q for G1\n        uint q = 21888242871839275222246405745257275088696311157297823662689037894645226208583;\n        if (p.X == 0 && p.Y == 0)\n            return G1Point(0, 0);\n        return G1Point(p.X, q - (p.Y % q));\n    }\n    /// @return the sum of two points of G1\n    function addition(G1Point memory p1, G1Point memory p2) view internal returns (G1Point memory r) {\n        uint[4] memory input;\n        input[0] = p1.X;\n        input[1] = p1.Y;\n        input[2] = p2.X;\n        input[3] = p2.Y;\n        bool success;\n        assembly {\n            success := staticcall(sub(gas, 2000), 6, input, 0xc0, r, 0x60)\n            // Use \"invalid\" to make gas estimation work\n            switch success case 0 { invalid() }\n        }\n        require(success);\n    }\n    /// @return the product of a point on G1 and a scalar, i.e.\n    /// p == p.scalar_mul(1) and p.addition(p) == p.scalar_mul(2) for all points p.\n    function scalar_mul(G1Point memory p, uint s) view internal returns (G1Point memory r) {\n        uint[3] memory input;\n        input[0] = p.X;\n        input[1] = p.Y;\n        input[2] = s;\n        bool success;\n        assembly {\n            success := staticcall(sub(gas, 2000), 7, input, 0x80, r, 0x60)\n            // Use \"invalid\" to make gas estimation work\n            switch success case 0 { invalid() }\n        }\n        require (success);\n    }\n    /// @return the result of computing the pairing check\n    /// e(p1[0], p2[0]) *  .... * e(p1[n], p2[n]) == 1\n    /// For example pairing([P1(), P1().negate()], [P2(), P2()]) should\n    /// return true.\n    function pairing(G1Point[] memory p1, G2Point[] memory p2) view internal returns (bool) {\n        require(p1.length == p2.length);\n        uint elements = p1.length;\n        uint inputSize = elements * 6;\n        uint[] memory input = new uint[](inputSize);\n        for (uint i = 0; i < elements; i++)\n        {\n            input[i * 6 + 0] = p1[i].X;\n            input[i * 6 + 1] = p1[i].Y;\n            input[i * 6 + 2] = p2[i].X[0];\n            input[i * 6 + 3] = p2[i].X[1];\n            input[i * 6 + 4] = p2[i].Y[0];\n            input[i * 6 + 5] = p2[i].Y[1];\n        }\n        uint[1] memory out;\n        bool success;\n        assembly {\n            success := staticcall(sub(gas, 2000), 8, add(input, 0x20), mul(inputSize, 0x20), out, 0x20)\n            // Use \"invalid\" to make gas estimation work\n            switch success case 0 { invalid() }\n        }\n        require(success);\n        return out[0] != 0;\n    }\n    /// Convenience method for a pairing check for two pairs.\n    function pairingProd2(G1Point memory a1, G2Point memory a2, G1Point memory b1, G2Point memory b2) view internal returns (bool) {\n        G1Point[] memory p1 = new G1Point[](2);\n        G2Point[] memory p2 = new G2Point[](2);\n        p1[0] = a1;\n        p1[1] = b1;\n        p2[0] = a2;\n        p2[1] = b2;\n        return pairing(p1, p2);\n    }\n    /// Convenience method for a pairing check for three pairs.\n    function pairingProd3(\n            G1Point memory a1, G2Point memory a2,\n            G1Point memory b1, G2Point memory b2,\n            G1Point memory c1, G2Point memory c2\n    ) view internal returns (bool) {\n        G1Point[] memory p1 = new G1Point[](3);\n        G2Point[] memory p2 = new G2Point[](3);\n        p1[0] = a1;\n        p1[1] = b1;\n        p1[2] = c1;\n        p2[0] = a2;\n        p2[1] = b2;\n        p2[2] = c2;\n        return pairing(p1, p2);\n    }\n    /// Convenience method for a pairing check for four pairs.\n    function pairingProd4(\n            G1Point memory a1, G2Point memory a2,\n            G1Point memory b1, G2Point memory b2,\n            G1Point memory c1, G2Point memory c2,\n            G1Point memory d1, G2Point memory d2\n    ) view internal returns (bool) {\n        G1Point[] memory p1 = new G1Point[](4);\n        G2Point[] memory p2 = new G2Point[](4);\n        p1[0] = a1;\n        p1[1] = b1;\n        p1[2] = c1;\n        p1[3] = d1;\n        p2[0] = a2;\n        p2[1] = b2;\n        p2[2] = c2;\n        p2[3] = d2;\n        return pairing(p1, p2);\n    }\n}\ncontract Verifier {\n    using Pairing for *;\n    struct VerifyingKey {\n        Pairing.G1Point alfa1;\n        Pairing.G2Point beta2;\n        Pairing.G2Point gamma2;\n        Pairing.G2Point delta2;\n        Pairing.G1Point[] IC;\n    }\n    struct Proof {\n        Pairing.G1Point A;\n        Pairing.G2Point B;\n        Pairing.G1Point C;\n    }\n    function verifyingDepositKey() pure internal returns (VerifyingKey memory vk) {\n\n        vk.alfa1 = Pairing.G1Point(17124737387485702229028786188930218914471557656182274021881821170784688351263,11643212712981323636382885545595401439541779544616436213605186338471347836867);\n        vk.beta2 = Pairing.G2Point([12257532022036449353168654984947235192727543699461251634453267370808969498602,10984284406735796990712152358247927712077153977426537774687473548647623519331], [8616036357477762982400569239564869887444529909239602674767990105241038423349,5313517540086871550177247298859782938293726658817584915189433851019886934666]);\n        vk.gamma2 = Pairing.G2Point([8107070604602053498176854458112901796316561025110928617753334096754885429178,11125243626171851470776664197978231348387801030159948382118102246238415676915], [12177080675542040816949560105740586939686420014755817759967682950984852593749,21387293722968872950231760052714645010914760050683591200458248484432958968032]);\n        vk.delta2 = Pairing.G2Point([8019941073747288084903442221349945384954624378943867593071072835101149016095,21013417065265277869113509854565411028712623615704923693798784126547948866424], [13347828092723943695993187262067889701491668652664856212999427715815967504705,17140386889913101400033983991990418673868277610139649731083662161638674907986]);\n        vk.IC = new Pairing.G1Point[](4);\n        vk.IC[0] = Pairing.G1Point(12671866874594492374730400045894684020626433554615581311737491683669878307908,5277190955629831889716265676402824525228007013309012937858902100535154420976);\n        vk.IC[1] = Pairing.G1Point(8544200527576760789121462476638614456930478719636063393147403049652761854344,13805015513037580803454137400302175425486240472853084493174830571040177145572);\n        vk.IC[2] = Pairing.G1Point(15918500014695993409527504417831801282937475758450624262569097555729110096261,9982163259549607755732497614611632192846378790708446211712109017972203930928);\n        vk.IC[3] = Pairing.G1Point(14554831709722879825898983564744627877857151252698012757969054861117323353856,107934732720613487664739975054218365991351950815403051058092278176267356675);\n\n    \n    }\n\n    function verifyingTransactionKey() pure internal returns (VerifyingKey memory vk) {\n\n        vk.alfa1 = Pairing.G1Point(7842044764771488662699969251524169340893042806995758158701562006300877218010,10584968930979632320646321209284673514334199753187717512341959068808994550613);\n        vk.beta2 = Pairing.G2Point([19869008577695717611101054051096263158404211897186147175484597974818200328711,20254180739413712937772379978904580127355470458112405216523462103307654671829], [513354381963420091486321984942945737287118816496951526325159103077102172291,13930313832394282185847608536915223372649635389597953666939401944792680354762]);\n        vk.gamma2 = Pairing.G2Point([7086839715933874223982702176121897076138748760139929581383209516438298995354,7175701054038217929519501124430011540716729138463326827165253062537830829960], [14020745391103289264792440439287682630983506455887852961875578479960324848694,20928907111491915948953091294887029283056904588333814111812080588480068336573]);\n        vk.delta2 = Pairing.G2Point([11823466808844917430872791410359101980125467964250762829023494319918483113037,138335958182034572011819944375631340113778853629416173945021036006813688382], [3802166263264475328121360535737216802088994421437426405146916838242969805824,14216845792007700790255446224482179780244492868206635849721654889082482428176]);\n        vk.IC = new Pairing.G1Point[](16);\n        vk.IC[0] = Pairing.G1Point(5967300819707578136895913678186587662750588139869698813136345728627358748465,17038017047692285637279412850600083782142878886995329485596663393369380380189);\n        vk.IC[1] = Pairing.G1Point(18586356605095257475479816189444060576094906705701795575497672938661888961091,18384502906358973170969668856304878165190525007909334013411660701044560193779);\n        vk.IC[2] = Pairing.G1Point(5601333196859749598633402602303231371785350470756044772081631407545985220516,7303312273921187506089738070239087031584661200671120945655412447256445576959);\n        vk.IC[3] = Pairing.G1Point(21542644084668141957210473699139509727187959863077733640525578116814557050151,6399644230142722512419259206207224476491246003063845825901095235241455752851);\n        vk.IC[4] = Pairing.G1Point(5782627850963632719034578861714319545896022083799113634481049003802241158125,1133534356384478324329803983874305814603197357131108535330502069116097650736);\n        vk.IC[5] = Pairing.G1Point(16682773677021213802897445033646222643964600293897933826416704264289288245654,18889552168962351092074391836799156567346122728237704757527489058894768310215);\n        vk.IC[6] = Pairing.G1Point(2960713435940096628927914158011236571409004608446779378819550774401641546969,11670957799599093842499886449181108597297362164566277863004837135731546081883);\n        vk.IC[7] = Pairing.G1Point(4825101695464131349244847698284231743515598597017461346964611300756099282405,11761988456014792002439676755393968250537789494179417095911840189941662247234);\n        vk.IC[8] = Pairing.G1Point(3241029381500273093631925483247364795431577252705999922768989433896396423407,20774045089761159980595534737951912404800997046286532186357560897108865420381);\n        vk.IC[9] = Pairing.G1Point(12868432709950671794200105767344147546744961818882083350689051331573144446675,14447685300851373038322549000732505122464520757619256050060994189881746079843);\n        vk.IC[10] = Pairing.G1Point(6819592094377648483582371950124822737249314056496101344254423095515478894595,15136847324350753067199020199855326422427205463337887966278402425023141302147);\n        vk.IC[11] = Pairing.G1Point(6087810332273383160903464973218102021395567619935903971864681422920353513939,20398654677629870263123271683671076902039959616577034268786866991267246144769);\n        vk.IC[12] = Pairing.G1Point(13989432297178987257529564955761528864323554067446585718222230819673274663890,3793855475545679427274308640416932717731722104986815831761716515957519048051);\n        vk.IC[13] = Pairing.G1Point(16301467604387500558677030440600991347741059805170265840174702711467691047724,19991267982263525853797186925756820310284186375031307138117248803333974545673);\n        vk.IC[14] = Pairing.G1Point(21851224814394618852216857443020092494798579037089542852496538635497629618484,801537813312896657815798290688528788410530998818650377235645223278014867835);\n        vk.IC[15] = Pairing.G1Point(6727211926894672862835766083402840816766042869348466990421774574788403581345,17116136316452174679777242695175914512556771827321160526001078068263593744463);\n\n    \n    }\n\n    function verifyingWithdrawalKey() pure internal returns (VerifyingKey memory vk) {\n\n        vk.alfa1 = Pairing.G1Point(8447929484096695960993689591740702006145807273412490180925169554224675199862,1868377481350085683712163343498235223140241267462854791517714308555255829258);\n        vk.beta2 = Pairing.G2Point([19229018056600045441777941997731897451784197985992425192063827246330251146461,17815306823617159346940100102841313186011241539897378461099435655595047277280], [14228344027550493381183664568813458681439865112845071562202282851249080016175,12205118287552555882253832669483007539534238865704043970518752271717397114600]);\n        vk.gamma2 = Pairing.G2Point([7794304439195555996060866027316730125537257816016064263328313974217750150752,19998551806641019587317905833457752626825203525649418438279463669174986950096], [3312701395269554224091250675671237671539797575009018179597082927536403039069,5056944630965492095700145017499590832422010852303387523866462205331435840633]);\n        vk.delta2 = Pairing.G2Point([9455454464767551865208997188077400147217704912992865511094123984196175406256,4077565647258399117689153010357651563464042488904452557037841242819611314038], [15659032573359846980884752159368202846941832141787595677651620610406282450562,20364866860691648009570422631365135082718710626284476466183817007492479310199]);\n        vk.IC = new Pairing.G1Point[](5);\n        vk.IC[0] = Pairing.G1Point(17788467003501325139866312615679692263079565480582831944003294222831411044813,11703456147586687189376081188782715339855080039024152559919661596845390338859);\n        vk.IC[1] = Pairing.G1Point(19649489209252475657973043022640478750835341409713474469195892366733185305445,10092763527888019251391741862093177813664794170604931214582968903824808833553);\n        vk.IC[2] = Pairing.G1Point(3034814566669005885517789413735516809670973266338978555506682022527225091520,13166535771274739870620726854728172451929004371172694000944722126528005656562);\n        vk.IC[3] = Pairing.G1Point(15477339494651679579895411080099477645032187192588909440940446299741253343921,4074867551677792858869097128389269393009773739372113063445006529560181897610);\n        vk.IC[4] = Pairing.G1Point(9982468603758098284452193594363312327590258546386478797280441766964215190948,12288770737363857000070088911416454758054525564000203522517096213198695904561);\n\n    \n    }\n\n    function verify(uint[] memory input, Proof memory proof, VerifyingKey memory vk) view internal returns (uint) {\n        require(input.length + 1 == vk.IC.length);\n        // Compute the linear combination vk_x\n        Pairing.G1Point memory vk_x = Pairing.G1Point(0, 0);\n        for (uint i = 0; i < input.length; i++)\n            vk_x = Pairing.addition(vk_x, Pairing.scalar_mul(vk.IC[i + 1], input[i]));\n        vk_x = Pairing.addition(vk_x, vk.IC[0]);\n        if (!Pairing.pairingProd4(\n            Pairing.negate(proof.A), proof.B,\n            vk.alfa1, vk.beta2,\n            vk_x, vk.gamma2,\n            proof.C, vk.delta2\n        )) return 1;\n        return 0;\n    }\n\n    function verifyDeposit(\n            uint[2] memory a,\n            uint[2][2] memory b,\n            uint[2] memory c,\n            uint[3] memory input\n        ) view public returns (bool r) {\n        Proof memory proof;\n        proof.A = Pairing.G1Point(a[0], a[1]);\n        proof.B = Pairing.G2Point([b[0][0], b[0][1]], [b[1][0], b[1][1]]);\n        proof.C = Pairing.G1Point(c[0], c[1]);\n        uint[] memory inputValues = new uint[](input.length);\n        for(uint i = 0; i < input.length; i++){\n            inputValues[i] = input[i];\n        }\n        if (verify(inputValues, proof, verifyingDepositKey()) == 0) {\n            return true;\n        } else {\n            return false;\n        }\n    }\n\n\n    function verifyTransaction(\n            uint[2] memory a,\n            uint[2][2] memory b,\n            uint[2] memory c,\n            uint[15] memory input\n        ) view public returns (bool r) {\n        Proof memory proof;\n        proof.A = Pairing.G1Point(a[0], a[1]);\n        proof.B = Pairing.G2Point([b[0][0], b[0][1]], [b[1][0], b[1][1]]);\n        proof.C = Pairing.G1Point(c[0], c[1]);\n        uint[] memory inputValues = new uint[](input.length);\n        for(uint i = 0; i < input.length; i++){\n            inputValues[i] = input[i];\n        }\n        if (verify(inputValues, proof, verifyingTransactionKey()) == 0) {\n            return true;\n        } else {\n            return false;\n        }\n    }\n\n    function verifyWithdrawal(\n            uint[2] memory a,\n            uint[2][2] memory b,\n            uint[2] memory c,\n            uint[4] memory input\n        ) view public returns (bool r) {\n        Proof memory proof;\n        proof.A = Pairing.G1Point(a[0], a[1]);\n        proof.B = Pairing.G2Point([b[0][0], b[0][1]], [b[1][0], b[1][1]]);\n        proof.C = Pairing.G1Point(c[0], c[1]);\n        uint[] memory inputValues = new uint[](input.length);\n        for(uint i = 0; i < input.length; i++){\n            inputValues[i] = input[i];\n        }\n        if (verify(inputValues, proof, verifyingWithdrawalKey()) == 0) {\n            return true;\n        } else {\n            return false;\n        }\n    }\n}\n",
  "sourcePath": "C:/Users/snjax/Documents/projects/mixed/zDai-mixer/smart-contract/contracts/Verifier.sol",
  "compiler": {
    "name": "solc",
    "version": "0.5.2+commit.1df8f40c.Emscripten.clang"
  },
  "schemaVersion": "3.0.2",
  "updatedAt": "2019-02-17T13:49:24.070Z",
  "devdoc": {
    "methods": {}
  },
  "userdoc": {
    "methods": {}
  }
}