{
  "contractName": "Voting",
  "abi": [
    {
      "constant": true,
      "inputs": [
        {
          "name": "",
          "type": "address"
        },
        {
          "name": "",
          "type": "uint256"
        }
      ],
      "name": "burnedSalt",
      "outputs": [
        {
          "name": "",
          "type": "bool"
        }
      ],
      "payable": false,
      "stateMutability": "view",
      "type": "function",
      "signature": "0x15144ae8"
    },
    {
      "constant": true,
      "inputs": [
        {
          "name": "",
          "type": "uint256"
        }
      ],
      "name": "utxo",
      "outputs": [
        {
          "name": "",
          "type": "bool"
        }
      ],
      "payable": false,
      "stateMutability": "view",
      "type": "function",
      "signature": "0xb9056439"
    },
    {
      "inputs": [
        {
          "name": "_verifier",
          "type": "address"
        },
        {
          "name": "_token",
          "type": "address"
        }
      ],
      "payable": false,
      "stateMutability": "nonpayable",
      "type": "constructor",
      "signature": "constructor"
    },
    {
      "anonymous": false,
      "inputs": [
        {
          "indexed": false,
          "name": "hash",
          "type": "uint256"
        }
      ],
      "name": "UtxoCreated",
      "type": "event",
      "signature": "0x5afbb10aa70126bb6b28672942d03f8f2de6a49dd7c0e34ed647a01d51362bc1"
    },
    {
      "anonymous": false,
      "inputs": [
        {
          "indexed": false,
          "name": "hash",
          "type": "uint256"
        }
      ],
      "name": "UtxoRemoved",
      "type": "event",
      "signature": "0x21d9d7f470fb9746b076065f4d8e30ebf802f7f33d5b67a5840b2557992e4220"
    },
    {
      "constant": false,
      "inputs": [
        {
          "name": "a",
          "type": "uint256[2]"
        },
        {
          "name": "b",
          "type": "uint256[2][2]"
        },
        {
          "name": "c",
          "type": "uint256[2]"
        },
        {
          "name": "input",
          "type": "uint256[13]"
        },
        {
          "name": "to",
          "type": "address"
        }
      ],
      "name": "withdrawal",
      "outputs": [
        {
          "name": "",
          "type": "bool"
        }
      ],
      "payable": false,
      "stateMutability": "nonpayable",
      "type": "function",
      "signature": "0xa43d526d"
    },
    {
      "constant": false,
      "inputs": [
        {
          "name": "a",
          "type": "uint256[2]"
        },
        {
          "name": "b",
          "type": "uint256[2][2]"
        },
        {
          "name": "c",
          "type": "uint256[2]"
        },
        {
          "name": "input",
          "type": "uint256[2]"
        }
      ],
      "name": "deposit",
      "outputs": [
        {
          "name": "",
          "type": "bool"
        }
      ],
      "payable": false,
      "stateMutability": "nonpayable",
      "type": "function",
      "signature": "0xeacec396"
    }
  ],
  "bytecode": "0x608060405234801561001057600080fd5b506040516040806109888339810180604052604081101561003057600080fd5b50805160209091015160015b600a81116100ba576040805160208082018490528251808303820181528284018085528151918301919091206000818152600193849052859020805460ff191690931790925581905291517f5afbb10aa70126bb6b28672942d03f8f2de6a49dd7c0e34ed647a01d51362bc19181900360600190a15060010161003c565b5060038054600160a060020a03928316600160a060020a0319918216179091556002805493909216921691909117905561088f806100f96000396000f3fe608060405234801561001057600080fd5b5060043610610068577c0100000000000000000000000000000000000000000000000000000000600035046315144ae8811461006d578063a43d526d146100ad578063b9056439146101b3578063eacec396146101d0575b600080fd5b6100996004803603604081101561008357600080fd5b50600160a060020a0381351690602001356102c9565b604080519115158252519081900360200190f35b61009960048036036102c08110156100c457600080fd5b6040805180820182529183019291818301918390600290839083908082843760009201829052506040805180820190915293969594608081019493509150600290835b828210156101455760408051808201825290808402860190600290839083908082843760009201919091525050508152600190910190602001610107565b5050604080518082018252939695948181019493509150600290839083908082843760009201919091525050604080516101a08181019092529295949381810193925090600d908390839080828437600092019190915250919450505035600160a060020a031690506102e6565b610099600480360360208110156101c957600080fd5b50356105b5565b61009960048036036101408110156101e757600080fd5b6040805180820182529183019291818301918390600290839083908082843760009201829052506040805180820190915293969594608081019493509150600290835b82821015610268576040805180820182529080840286019060029083908390808284376000920191909152505050815260019091019060200161022a565b5050604080518082018252939695948181019493509150600290839083908082843760009201919091525050604080518082018252929594938181019392509060029083908390808284376000920191909152509194506105ca9350505050565b600060208181529281526040808220909352908152205460ff1681565b3360009081526020818152604080832085830151845290915281205460ff161561030f57600080fd5b6040830151600160a060020a0316331461032857600080fd5b60035b600d81101561037357600160008583600d811061034457fe5b6020908102919091015182528101919091526040016000205460ff16151561036b57600080fd5b60010161032b565b50600254604080517fd3493392000000000000000000000000000000000000000000000000000000008152600160a060020a039092169163d34933929189918991899189916004909101908190869080838360005b838110156103e05781810151838201526020016103c8565b505050509050018460026000925b8184101561042e5760208402830151604080838360005b8381101561041d578181015183820152602001610405565b5050505090500192600101926103ee565b9250505083600260200280838360005b8381101561045657818101518382015260200161043e565b5050505090500182600d60200280838360005b83811015610481578181015183820152602001610469565b50505050905001945050505050602060405180830381600087803b1580156104a857600080fd5b505af11580156104bc573d6000803e3d6000fd5b505050506040513d60208110156104d257600080fd5b505115156104df57600080fd5b336000908152602081815260408083208683015184528252808320805460ff19166001179055600354865182517fa9059cbb000000000000000000000000000000000000000000000000000000008152600160a060020a0388811660048301526024820192909252925191169363a9059cbb93604480850194919392918390030190829087803b15801561057257600080fd5b505af1158015610586573d6000803e3d6000fd5b505050506040513d602081101561059c57600080fd5b505115156105a957600080fd5b50600195945050505050565b60016020526000908152604090205460ff1681565b6003548151604080517f23b872dd000000000000000000000000000000000000000000000000000000008152336004820152306024820152604481019290925251600092600160a060020a0316916323b872dd91606480830192602092919082900301818787803b15801561063e57600080fd5b505af1158015610652573d6000803e3d6000fd5b505050506040513d602081101561066857600080fd5b5051151561067557600080fd5b60208083015160009081526001909152604090205460ff161561069757600080fd5b600254604080517f4fa86832000000000000000000000000000000000000000000000000000000008152600160a060020a0390921691634fa868329188918891889188916004909101908190869080838360005b838110156107035781810151838201526020016106eb565b505050509050018460026000925b818410156107515760208402830151604080838360005b83811015610740578181015183820152602001610728565b505050509050019260010192610711565b9250505083600260200280838360005b83811015610779578181015183820152602001610761565b5050505090500182600260200280838360005b838110156107a457818101518382015260200161078c565b50505050905001945050505050602060405180830381600087803b1580156107cb57600080fd5b505af11580156107df573d6000803e3d6000fd5b505050506040513d60208110156107f557600080fd5b5051151561080257600080fd5b6020808301805160009081526001808452604091829020805460ff191690911790559051815190815290517f5afbb10aa70126bb6b28672942d03f8f2de6a49dd7c0e34ed647a01d51362bc1929181900390910190a150600194935050505056fea165627a7a72305820d9bb9ae195a400afafe0731311a8531b8943df12ea29c6db68d2aee298b5663a0029",
  "source": "pragma solidity >=0.5.2;\r\n\r\nimport \"openzeppelin-solidity/contracts/math/SafeMath.sol\";\r\nimport \"openzeppelin-solidity/contracts/token/ERC20/IERC20.sol\";\r\n\r\ncontract IVerifier {\r\n\r\n  function verifyWithdrawal(\r\n    uint[2] memory a,\r\n    uint[2][2] memory b,\r\n    uint[2] memory c,\r\n    uint[13] memory input \r\n    ) public returns(bool);\r\n\r\n  function verifyDeposit(\r\n    uint[2] memory a,\r\n    uint[2][2] memory b,\r\n    uint[2] memory c,\r\n    uint[2] memory input \r\n    ) public returns(bool);\r\n}\r\n\r\ncontract Voting {\r\n  using SafeMath for uint;\r\n\r\n  mapping(address=>mapping(uint => bool)) public burnedSalt;\r\n  mapping(uint => bool) public utxo;\r\n\r\n  IVerifier verifier;\r\n  IERC20 token;\r\n\r\n  event UtxoCreated(uint hash);\r\n  event UtxoRemoved(uint hash);\r\n\r\n  constructor(address _verifier, address _token) public {\r\n    for (uint i = 1; i <= 10; i++) {\r\n      uint hash = uint(keccak256(abi.encodePacked(i)));\r\n      utxo[hash] = true;\r\n      emit UtxoCreated(hash);\r\n    }\r\n    token = IERC20(_token);\r\n    verifier = IVerifier(_verifier);\r\n  }\r\n\r\n\r\n  function withdrawal(\r\n    uint[2] memory a,\r\n    uint[2][2] memory b,\r\n    uint[2] memory c,\r\n    uint[13] memory input,  /* balance, salt, owner, all_in_hashes[10] */\r\n    address to\r\n  ) public returns(bool) {\r\n    require(!burnedSalt[msg.sender][input[1]]);\r\n    require(address(input[2]) == msg.sender);\r\n    for (uint i=3; i<13; i++) {\r\n      require(utxo[input[i]]);\r\n    }\r\n    require(verifier.verifyWithdrawal(a, b, c, input));\r\n    burnedSalt[msg.sender][input[1]] = true;\r\n    require(token.transfer(to, input[0]));\r\n    return true;\r\n  }\r\n\r\n\r\n\r\n  function deposit(\r\n    uint[2] memory a,\r\n    uint[2][2] memory b,\r\n    uint[2] memory c,\r\n    uint[2] memory input /* balance, hash */\r\n  ) public returns(bool) {\r\n    require(token.transferFrom(msg.sender, address(this), input[0]));\r\n    require(!utxo[input[1]]);\r\n    require(verifier.verifyDeposit(a, b, c, input));\r\n    utxo[input[1]] = true;\r\n    emit UtxoCreated(input[1]);\r\n    return true;\r\n  }\r\n\r\n}",
  "sourcePath": "D:/data/projects/mixed/zkVoting/smart-contract/contracts/Voting.sol",
  "compiler": {
    "name": "solc",
    "version": "0.5.2+commit.1df8f40c.Emscripten.clang"
  },
  "schemaVersion": "3.0.6",
  "updatedAt": "2019-05-19T16:09:44.655Z",
  "devdoc": {
    "methods": {}
  },
  "userdoc": {
    "methods": {}
  }
}