{
  "contractName": "ZDai",
  "abi": [
    {
      "constant": true,
      "inputs": [
        {
          "name": "",
          "type": "address"
        },
        {
          "name": "",
          "type": "uint256"
        }
      ],
      "name": "burnedSalt",
      "outputs": [
        {
          "name": "",
          "type": "bool"
        }
      ],
      "payable": false,
      "stateMutability": "view",
      "type": "function",
      "signature": "0x15144ae8"
    },
    {
      "constant": true,
      "inputs": [
        {
          "name": "",
          "type": "uint256"
        }
      ],
      "name": "utxo",
      "outputs": [
        {
          "name": "",
          "type": "bool"
        }
      ],
      "payable": false,
      "stateMutability": "view",
      "type": "function",
      "signature": "0xb9056439"
    },
    {
      "inputs": [
        {
          "name": "_verifier",
          "type": "address"
        }
      ],
      "payable": false,
      "stateMutability": "nonpayable",
      "type": "constructor",
      "signature": "constructor"
    },
    {
      "constant": false,
      "inputs": [
        {
          "name": "a",
          "type": "uint256[2]"
        },
        {
          "name": "b",
          "type": "uint256[2][2]"
        },
        {
          "name": "c",
          "type": "uint256[2]"
        },
        {
          "name": "input",
          "type": "uint256[15]"
        }
      ],
      "name": "transaction",
      "outputs": [
        {
          "name": "",
          "type": "bool"
        }
      ],
      "payable": false,
      "stateMutability": "nonpayable",
      "type": "function",
      "signature": "0x7372d8a2"
    },
    {
      "constant": false,
      "inputs": [
        {
          "name": "a",
          "type": "uint256[2]"
        },
        {
          "name": "b",
          "type": "uint256[2][2]"
        },
        {
          "name": "c",
          "type": "uint256[2]"
        },
        {
          "name": "input",
          "type": "uint256[4]"
        }
      ],
      "name": "withdrawal",
      "outputs": [
        {
          "name": "",
          "type": "bool"
        }
      ],
      "payable": false,
      "stateMutability": "nonpayable",
      "type": "function",
      "signature": "0x1a60bcae"
    },
    {
      "constant": false,
      "inputs": [
        {
          "name": "a",
          "type": "uint256[2]"
        },
        {
          "name": "b",
          "type": "uint256[2][2]"
        },
        {
          "name": "c",
          "type": "uint256[2]"
        },
        {
          "name": "input",
          "type": "uint256[3]"
        }
      ],
      "name": "deposit",
      "outputs": [
        {
          "name": "",
          "type": "bool"
        }
      ],
      "payable": true,
      "stateMutability": "payable",
      "type": "function",
      "signature": "0x74cbc6b4"
    }
  ],
  "bytecode": "0x608060405234801561001057600080fd5b50604051602080610be58339810180604052602081101561003057600080fd5b505160015b600a811161005e576000818152600160208190526040909120805460ff19168217905501610035565b5060028054600160a060020a031916600160a060020a0392909216919091179055610b578061008e6000396000f3fe608060405260043610610066577c0100000000000000000000000000000000000000000000000000000000600035046315144ae8811461006b5780631a60bcae146100b85780637372d8a2146101c157806374cbc6b4146102cb578063b9056439146103c7575b600080fd5b34801561007757600080fd5b506100a46004803603604081101561008e57600080fd5b50600160a060020a0381351690602001356103f1565b604080519115158252519081900360200190f35b3480156100c457600080fd5b506100a460048036036101808110156100dc57600080fd5b6040805180820182529183019291818301918390600290839083908082843760009201829052506040805180820190915293969594608081019493509150600290835b8282101561015d576040805180820182529080840286019060029083908390808284376000920191909152505050815260019091019060200161011f565b50506040805180820182529396959481810194935091506002908390839080828437600092019190915250506040805160808181019092529295949381810193925090600490839083908082843760009201919091525091945061040e9350505050565b3480156101cd57600080fd5b506100a460048036036102e08110156101e557600080fd5b6040805180820182529183019291818301918390600290839083908082843760009201829052506040805180820190915293969594608081019493509150600290835b828210156102665760408051808201825290808402860190600290839083908082843760009201919091525050508152600190910190602001610228565b5050604080518082018252939695948181019493509150600290839083908082843760009201919091525050604080516101e08181019092529295949381810193925090600f9083908390808284376000920191909152509194506106579350505050565b6100a460048036036101608110156102e257600080fd5b6040805180820182529183019291818301918390600290839083908082843760009201829052506040805180820190915293969594608081019493509150600290835b828210156103635760408051808201825290808402860190600290839083908082843760009201919091525050508152600190910190602001610325565b5050604080518082018252939695948181019493509150600290839083908082843760009201919091525050604080516060818101909252929594938181019392509060039083908390808284376000920191909152509194506109569350505050565b3480156103d357600080fd5b506100a4600480360360208110156103ea57600080fd5b5035610b16565b600060208181529281526040808220909352908152205460ff1681565b3360009081526020818152604080832084830151845290915281205460ff161561043757600080fd5b6040820151600160a060020a0316331461045057600080fd5b606082015160009081526001602052604090205460ff16151561047257600080fd5b600254604080517f53208630000000000000000000000000000000000000000000000000000000008152600160a060020a039092169163532086309188918891889188916004909101908190869080838360005b838110156104de5781810151838201526020016104c6565b505050509050018460026000925b8184101561052c5760208402830151604080838360005b8381101561051b578181015183820152602001610503565b5050505090500192600101926104ec565b9250505083600260200280838360005b8381101561055457818101518382015260200161053c565b5050505090500182600460200280838360005b8381101561057f578181015183820152602001610567565b50505050905001945050505050602060405180830381600087803b1580156105a657600080fd5b505af11580156105ba573d6000803e3d6000fd5b505050506040513d60208110156105d057600080fd5b505115156105dd57600080fd5b60608201516000908152600160208181526040808420805460ff1990811690915533808652858452828620848901518752909352818520805490911690931790925584519151909282156108fc02929190818181858888f1935050505015801561064b573d6000803e3d6000fd5b50600195945050505050565b8051600090600160a060020a0316331461067057600080fd5b3360009081526020818152604080832085830151845290915290205460ff161561069957600080fd5b3360009081526020818152604080832085820151845290915290205460ff16156106c257600080fd5b60035b600d81101561070d57600160008483600f81106106de57fe5b6020908102919091015182528101919091526040016000205460ff16151561070557600080fd5b6001016106c5565b506101a082015160009081526001602052604090205460ff161561073057600080fd5b6101c082015160009081526001602052604090205460ff161561075257600080fd5b600254604080517f573a163e000000000000000000000000000000000000000000000000000000008152600160a060020a039092169163573a163e9188918891889188916004909101908190869080838360005b838110156107be5781810151838201526020016107a6565b505050509050018460026000925b8184101561080c5760208402830151604080838360005b838110156107fb5781810151838201526020016107e3565b5050505090500192600101926107cc565b9250505083600260200280838360005b8381101561083457818101518382015260200161081c565b5050505090500182600f60200280838360005b8381101561085f578181015183820152602001610847565b50505050905001945050505050602060405180830381600087803b15801561088657600080fd5b505af115801561089a573d6000803e3d6000fd5b505050506040513d60208110156108b057600080fd5b505115156108bd57600080fd5b6101a08201516000908152600160208181526040808420805460ff1990811685179091556101c087015185528185208054821685179055338086528584528286208489015187528085529286208054909216851790915584529083905290918460025b6020020151815260200190815260200160002060006101000a81548160ff02191690831515021790555060019050949350505050565b8051600090341461096657600080fd5b6020820151600160a060020a0316331461097f57600080fd5b60408083015160009081526001602052205460ff161561099e57600080fd5b600254604080517fe331f4bd000000000000000000000000000000000000000000000000000000008152600160a060020a039092169163e331f4bd9188918891889188916004909101908190869080838360005b83811015610a0a5781810151838201526020016109f2565b505050509050018460026000925b81841015610a585760208402830151604080838360005b83811015610a47578181015183820152602001610a2f565b505050509050019260010192610a18565b9250505083600260200280838360005b83811015610a80578181015183820152602001610a68565b5050505090500182600360200280838360005b83811015610aab578181015183820152602001610a93565b50505050905001945050505050602060405180830381600087803b158015610ad257600080fd5b505af1158015610ae6573d6000803e3d6000fd5b505050506040513d6020811015610afc57600080fd5b50511515610b0957600080fd5b6001806000846002610920565b60016020526000908152604090205460ff168156fea165627a7a7230582071114f151beb1d18570e5523473b3cb8231db62d60bfae1d7b8aa3f8780450cf0029",
  "source": "pragma solidity >=0.5.2;\r\n\r\nimport \"openzeppelin-solidity/contracts/math/SafeMath.sol\";\r\n\r\n\r\ncontract IVerifier {\r\n  function verifyTransaction(\r\n    uint[2] memory a,\r\n    uint[2][2] memory b,\r\n    uint[2] memory c,\r\n    uint[15] memory input \r\n    ) public returns(bool);\r\n\r\n  function verifyWithdrawal(\r\n    uint[2] memory a,\r\n    uint[2][2] memory b,\r\n    uint[2] memory c,\r\n    uint[4] memory input \r\n    ) public returns(bool);\r\n\r\n  function verifyDeposit(\r\n    uint[2] memory a,\r\n    uint[2][2] memory b,\r\n    uint[2] memory c,\r\n    uint[3] memory input \r\n    ) public returns(bool);\r\n}\r\n\r\ncontract ZDai {\r\n  using SafeMath for uint;\r\n\r\n  mapping(address=>mapping(uint => bool)) public burnedSalt;\r\n  mapping(uint => bool) public utxo;\r\n\r\n  IVerifier verifier;\r\n\r\n  constructor(address _verifier) public {\r\n    for (uint i = 1; i <= 10; i++) {\r\n      utxo[i] = true;\r\n    }\r\n    verifier = IVerifier(_verifier);\r\n  }\r\n\r\n  function transaction(\r\n    uint[2] memory a,\r\n    uint[2][2] memory b,\r\n    uint[2] memory c,\r\n    uint[15] memory input /* owner, in_salt[2], all_in_hashes[10], out_hashes[2] */\r\n  ) public returns(bool) {\r\n    require(address(input[0])==msg.sender);\r\n    require(!burnedSalt[msg.sender][input[1]]);\r\n    require(!burnedSalt[msg.sender][input[2]]);\r\n    for(uint i=3; i<13; i++) {\r\n      require(utxo[input[i]]);\r\n    }\r\n    require(!utxo[input[13]]);\r\n    require(!utxo[input[14]]);\r\n    require(verifier.verifyTransaction(a, b, c, input));\r\n\r\n    utxo[input[13]] = true;\r\n    utxo[input[14]] = true;\r\n    burnedSalt[msg.sender][input[1]] = true;\r\n    burnedSalt[msg.sender][input[2]] = true;\r\n    return true;\r\n  }\r\n\r\n  function withdrawal(\r\n    uint[2] memory a,\r\n    uint[2][2] memory b,\r\n    uint[2] memory c,\r\n    uint[4] memory input  /* balance, salt, owner, hash */\r\n  ) public returns(bool) {\r\n    require(!burnedSalt[msg.sender][input[1]]);\r\n    require(address(input[2]) == msg.sender);\r\n    require(utxo[input[3]]);\r\n    require(verifier.verifyWithdrawal(a, b, c, input));\r\n    utxo[input[3]] = false;\r\n    burnedSalt[msg.sender][input[1]] = true;\r\n    msg.sender.transfer(input[0]);\r\n    return true;\r\n  }\r\n\r\n  function deposit(\r\n    uint[2] memory a,\r\n    uint[2][2] memory b,\r\n    uint[2] memory c,\r\n    uint[3] memory input /* balance, owner, hash */\r\n  ) public payable returns(bool) {\r\n    require(input[0] == msg.value);\r\n    require(address(input[1]) == msg.sender);\r\n    require(!utxo[input[2]]);\r\n    require(verifier.verifyDeposit(a, b, c, input));\r\n    utxo[input[2]] = true;\r\n    return true;\r\n  }\r\n\r\n}",
  "sourcePath": "C:/Users/snjax/Documents/projects/mixed/zDai-mixer/smart-contract/contracts/ZDai.sol",
  "compiler": {
    "name": "solc",
    "version": "0.5.2+commit.1df8f40c.Emscripten.clang"
  },
  "schemaVersion": "3.0.2",
  "updatedAt": "2019-02-17T13:49:24.047Z",
  "devdoc": {
    "methods": {}
  },
  "userdoc": {
    "methods": {}
  }
}